{
  "contractName": "PrivateSale",
  "abi": [
    {
      "inputs": [
        {
          "internalType": "address[]",
          "name": "_payees",
          "type": "address[]"
        },
        {
          "internalType": "uint256[]",
          "name": "_shares",
          "type": "uint256[]"
        }
      ],
      "stateMutability": "nonpayable",
      "type": "constructor"
    },
    {
      "anonymous": false,
      "inputs": [
        {
          "indexed": true,
          "internalType": "contract IARC20",
          "name": "token",
          "type": "address"
        },
        {
          "indexed": false,
          "internalType": "address",
          "name": "to",
          "type": "address"
        },
        {
          "indexed": false,
          "internalType": "uint256",
          "name": "amount",
          "type": "uint256"
        }
      ],
      "name": "ARC20PaymentReleased",
      "type": "event"
    },
    {
      "anonymous": false,
      "inputs": [
        {
          "indexed": true,
          "internalType": "address",
          "name": "owner",
          "type": "address"
        },
        {
          "indexed": true,
          "internalType": "address",
          "name": "spender",
          "type": "address"
        },
        {
          "indexed": false,
          "internalType": "uint256",
          "name": "value",
          "type": "uint256"
        }
      ],
      "name": "Approval",
      "type": "event"
    },
    {
      "anonymous": false,
      "inputs": [
        {
          "indexed": true,
          "internalType": "address",
          "name": "previousOwner",
          "type": "address"
        },
        {
          "indexed": true,
          "internalType": "address",
          "name": "newOwner",
          "type": "address"
        }
      ],
      "name": "OwnershipTransferred",
      "type": "event"
    },
    {
      "anonymous": false,
      "inputs": [
        {
          "indexed": false,
          "internalType": "address",
          "name": "account",
          "type": "address"
        }
      ],
      "name": "Paused",
      "type": "event"
    },
    {
      "anonymous": false,
      "inputs": [
        {
          "indexed": false,
          "internalType": "address",
          "name": "account",
          "type": "address"
        },
        {
          "indexed": false,
          "internalType": "uint256",
          "name": "shares",
          "type": "uint256"
        }
      ],
      "name": "PayeeAdded",
      "type": "event"
    },
    {
      "anonymous": false,
      "inputs": [
        {
          "indexed": false,
          "internalType": "address",
          "name": "from",
          "type": "address"
        },
        {
          "indexed": false,
          "internalType": "uint256",
          "name": "amount",
          "type": "uint256"
        }
      ],
      "name": "PaymentReceived",
      "type": "event"
    },
    {
      "anonymous": false,
      "inputs": [
        {
          "indexed": false,
          "internalType": "address",
          "name": "to",
          "type": "address"
        },
        {
          "indexed": false,
          "internalType": "uint256",
          "name": "amount",
          "type": "uint256"
        }
      ],
      "name": "PaymentReleased",
      "type": "event"
    },
    {
      "anonymous": false,
      "inputs": [
        {
          "indexed": true,
          "internalType": "address",
          "name": "purchaser",
          "type": "address"
        },
        {
          "indexed": true,
          "internalType": "address",
          "name": "beneficiary",
          "type": "address"
        },
        {
          "indexed": false,
          "internalType": "uint256",
          "name": "value",
          "type": "uint256"
        },
        {
          "indexed": false,
          "internalType": "uint256",
          "name": "amount",
          "type": "uint256"
        }
      ],
      "name": "TokenPurchase",
      "type": "event"
    },
    {
      "anonymous": false,
      "inputs": [
        {
          "indexed": true,
          "internalType": "address",
          "name": "from",
          "type": "address"
        },
        {
          "indexed": true,
          "internalType": "address",
          "name": "to",
          "type": "address"
        },
        {
          "indexed": false,
          "internalType": "uint256",
          "name": "value",
          "type": "uint256"
        }
      ],
      "name": "Transfer",
      "type": "event"
    },
    {
      "anonymous": false,
      "inputs": [
        {
          "indexed": false,
          "internalType": "address",
          "name": "account",
          "type": "address"
        }
      ],
      "name": "Unpaused",
      "type": "event"
    },
    {
      "stateMutability": "payable",
      "type": "fallback",
      "payable": true
    },
    {
      "inputs": [],
      "name": "_endTime",
      "outputs": [
        {
          "internalType": "uint256",
          "name": "",
          "type": "uint256"
        }
      ],
      "stateMutability": "view",
      "type": "function",
      "constant": true
    },
    {
      "inputs": [],
      "name": "_startTime",
      "outputs": [
        {
          "internalType": "uint256",
          "name": "",
          "type": "uint256"
        }
      ],
      "stateMutability": "view",
      "type": "function",
      "constant": true
    },
    {
      "inputs": [
        {
          "internalType": "address",
          "name": "owner",
          "type": "address"
        },
        {
          "internalType": "address",
          "name": "spender",
          "type": "address"
        }
      ],
      "name": "allowance",
      "outputs": [
        {
          "internalType": "uint256",
          "name": "",
          "type": "uint256"
        }
      ],
      "stateMutability": "view",
      "type": "function",
      "constant": true
    },
    {
      "inputs": [
        {
          "internalType": "address",
          "name": "spender",
          "type": "address"
        },
        {
          "internalType": "uint256",
          "name": "amount",
          "type": "uint256"
        }
      ],
      "name": "approve",
      "outputs": [
        {
          "internalType": "bool",
          "name": "",
          "type": "bool"
        }
      ],
      "stateMutability": "nonpayable",
      "type": "function"
    },
    {
      "inputs": [
        {
          "internalType": "address",
          "name": "account",
          "type": "address"
        }
      ],
      "name": "balanceOf",
      "outputs": [
        {
          "internalType": "uint256",
          "name": "",
          "type": "uint256"
        }
      ],
      "stateMutability": "view",
      "type": "function",
      "constant": true
    },
    {
      "inputs": [],
      "name": "decimals",
      "outputs": [
        {
          "internalType": "uint8",
          "name": "",
          "type": "uint8"
        }
      ],
      "stateMutability": "view",
      "type": "function",
      "constant": true
    },
    {
      "inputs": [
        {
          "internalType": "address",
          "name": "spender",
          "type": "address"
        },
        {
          "internalType": "uint256",
          "name": "subtractedValue",
          "type": "uint256"
        }
      ],
      "name": "decreaseAllowance",
      "outputs": [
        {
          "internalType": "bool",
          "name": "",
          "type": "bool"
        }
      ],
      "stateMutability": "nonpayable",
      "type": "function"
    },
    {
      "inputs": [
        {
          "internalType": "address",
          "name": "spender",
          "type": "address"
        },
        {
          "internalType": "uint256",
          "name": "addedValue",
          "type": "uint256"
        }
      ],
      "name": "increaseAllowance",
      "outputs": [
        {
          "internalType": "bool",
          "name": "",
          "type": "bool"
        }
      ],
      "stateMutability": "nonpayable",
      "type": "function"
    },
    {
      "inputs": [],
      "name": "name",
      "outputs": [
        {
          "internalType": "string",
          "name": "",
          "type": "string"
        }
      ],
      "stateMutability": "view",
      "type": "function",
      "constant": true
    },
    {
      "inputs": [],
      "name": "owner",
      "outputs": [
        {
          "internalType": "address",
          "name": "",
          "type": "address"
        }
      ],
      "stateMutability": "view",
      "type": "function",
      "constant": true
    },
    {
      "inputs": [],
      "name": "packagePrice",
      "outputs": [
        {
          "internalType": "uint256",
          "name": "",
          "type": "uint256"
        }
      ],
      "stateMutability": "view",
      "type": "function",
      "constant": true
    },
    {
      "inputs": [],
      "name": "paused",
      "outputs": [
        {
          "internalType": "bool",
          "name": "",
          "type": "bool"
        }
      ],
      "stateMutability": "view",
      "type": "function",
      "constant": true
    },
    {
      "inputs": [
        {
          "internalType": "uint256",
          "name": "index",
          "type": "uint256"
        }
      ],
      "name": "payee",
      "outputs": [
        {
          "internalType": "address",
          "name": "",
          "type": "address"
        }
      ],
      "stateMutability": "view",
      "type": "function",
      "constant": true
    },
    {
      "inputs": [],
      "name": "presaleAmount",
      "outputs": [
        {
          "internalType": "uint256",
          "name": "",
          "type": "uint256"
        }
      ],
      "stateMutability": "view",
      "type": "function",
      "constant": true
    },
    {
      "inputs": [],
      "name": "presaleDuration",
      "outputs": [
        {
          "internalType": "uint256",
          "name": "",
          "type": "uint256"
        }
      ],
      "stateMutability": "view",
      "type": "function",
      "constant": true
    },
    {
      "inputs": [],
      "name": "rate",
      "outputs": [
        {
          "internalType": "uint256",
          "name": "",
          "type": "uint256"
        }
      ],
      "stateMutability": "view",
      "type": "function",
      "constant": true
    },
    {
      "inputs": [
        {
          "internalType": "address payable",
          "name": "account",
          "type": "address"
        }
      ],
      "name": "release",
      "outputs": [],
      "stateMutability": "nonpayable",
      "type": "function"
    },
    {
      "inputs": [
        {
          "internalType": "contract IARC20",
          "name": "token",
          "type": "address"
        },
        {
          "internalType": "address",
          "name": "account",
          "type": "address"
        }
      ],
      "name": "release",
      "outputs": [],
      "stateMutability": "nonpayable",
      "type": "function"
    },
    {
      "inputs": [
        {
          "internalType": "contract IARC20",
          "name": "token",
          "type": "address"
        },
        {
          "internalType": "address",
          "name": "account",
          "type": "address"
        }
      ],
      "name": "released",
      "outputs": [
        {
          "internalType": "uint256",
          "name": "",
          "type": "uint256"
        }
      ],
      "stateMutability": "view",
      "type": "function",
      "constant": true
    },
    {
      "inputs": [
        {
          "internalType": "address",
          "name": "account",
          "type": "address"
        }
      ],
      "name": "released",
      "outputs": [
        {
          "internalType": "uint256",
          "name": "",
          "type": "uint256"
        }
      ],
      "stateMutability": "view",
      "type": "function",
      "constant": true
    },
    {
      "inputs": [],
      "name": "renounceOwnership",
      "outputs": [],
      "stateMutability": "nonpayable",
      "type": "function"
    },
    {
      "inputs": [
        {
          "internalType": "address",
          "name": "account",
          "type": "address"
        }
      ],
      "name": "shares",
      "outputs": [
        {
          "internalType": "uint256",
          "name": "",
          "type": "uint256"
        }
      ],
      "stateMutability": "view",
      "type": "function",
      "constant": true
    },
    {
      "inputs": [],
      "name": "symbol",
      "outputs": [
        {
          "internalType": "string",
          "name": "",
          "type": "string"
        }
      ],
      "stateMutability": "view",
      "type": "function",
      "constant": true
    },
    {
      "inputs": [
        {
          "internalType": "contract IARC20",
          "name": "token",
          "type": "address"
        }
      ],
      "name": "totalReleased",
      "outputs": [
        {
          "internalType": "uint256",
          "name": "",
          "type": "uint256"
        }
      ],
      "stateMutability": "view",
      "type": "function",
      "constant": true
    },
    {
      "inputs": [],
      "name": "totalReleased",
      "outputs": [
        {
          "internalType": "uint256",
          "name": "",
          "type": "uint256"
        }
      ],
      "stateMutability": "view",
      "type": "function",
      "constant": true
    },
    {
      "inputs": [],
      "name": "totalShares",
      "outputs": [
        {
          "internalType": "uint256",
          "name": "",
          "type": "uint256"
        }
      ],
      "stateMutability": "view",
      "type": "function",
      "constant": true
    },
    {
      "inputs": [],
      "name": "totalSupply",
      "outputs": [
        {
          "internalType": "uint256",
          "name": "",
          "type": "uint256"
        }
      ],
      "stateMutability": "view",
      "type": "function",
      "constant": true
    },
    {
      "inputs": [
        {
          "internalType": "address",
          "name": "to",
          "type": "address"
        },
        {
          "internalType": "uint256",
          "name": "amount",
          "type": "uint256"
        }
      ],
      "name": "transfer",
      "outputs": [
        {
          "internalType": "bool",
          "name": "",
          "type": "bool"
        }
      ],
      "stateMutability": "nonpayable",
      "type": "function"
    },
    {
      "inputs": [
        {
          "internalType": "address",
          "name": "from",
          "type": "address"
        },
        {
          "internalType": "address",
          "name": "to",
          "type": "address"
        },
        {
          "internalType": "uint256",
          "name": "amount",
          "type": "uint256"
        }
      ],
      "name": "transferFrom",
      "outputs": [
        {
          "internalType": "bool",
          "name": "",
          "type": "bool"
        }
      ],
      "stateMutability": "nonpayable",
      "type": "function"
    },
    {
      "inputs": [
        {
          "internalType": "address",
          "name": "newOwner",
          "type": "address"
        }
      ],
      "name": "transferOwnership",
      "outputs": [],
      "stateMutability": "nonpayable",
      "type": "function"
    },
    {
      "inputs": [],
      "name": "weiRaised",
      "outputs": [
        {
          "internalType": "uint256",
          "name": "",
          "type": "uint256"
        }
      ],
      "stateMutability": "view",
      "type": "function",
      "constant": true
    },
    {
      "stateMutability": "payable",
      "type": "receive",
      "payable": true
    },
    {
      "inputs": [
        {
          "internalType": "uint256",
          "name": "startTime",
          "type": "uint256"
        }
      ],
      "name": "setStartTime",
      "outputs": [],
      "stateMutability": "nonpayable",
      "type": "function"
    },
    {
      "inputs": [
        {
          "internalType": "uint256",
          "name": "vestingStartTime",
          "type": "uint256"
        }
      ],
      "name": "startVesting",
      "outputs": [],
      "stateMutability": "nonpayable",
      "type": "function"
    },
    {
      "inputs": [
        {
          "internalType": "address[]",
          "name": "addresses",
          "type": "address[]"
        }
      ],
      "name": "addToWL",
      "outputs": [],
      "stateMutability": "nonpayable",
      "type": "function"
    },
    {
      "inputs": [
        {
          "internalType": "address",
          "name": "_beneficiary",
          "type": "address"
        }
      ],
      "name": "buyTokens",
      "outputs": [],
      "stateMutability": "payable",
      "type": "function",
      "payable": true
    },
    {
      "inputs": [
        {
          "internalType": "address",
          "name": "withdrawer",
          "type": "address"
        }
      ],
      "name": "withdraw",
      "outputs": [],
      "stateMutability": "nonpayable",
      "type": "function"
    },
    {
      "inputs": [],
      "name": "sendTokensBack",
      "outputs": [],
      "stateMutability": "nonpayable",
      "type": "function"
    }
  ],
  "bytecode": "0x60806040526040518060400160405280600981526020017f614d6f756e7461696e0000000000000000000000000000000000000000000000815250600e90805190602001906200005192919062000838565b506040518060400160405280600481526020017f614d544e00000000000000000000000000000000000000000000000000000000815250600f90805190602001906200009f92919062000838565b50600060135562093a80601455600a601555670de0b6b3a7640000601655683635c9adc5dea00000601755348015620000d757600080fd5b5060405162004efb38038062004efb8339818101604052810190620000fd919062000be7565b8181600e80546200010e9062000c9b565b80601f01602080910402602001604051908101604052809291908181526020018280546200013c9062000c9b565b80156200018d5780601f1062000161576101008083540402835291602001916200018d565b820191906000526020600020905b8154815290600101906020018083116200016f57829003601f168201915b5050505050600f8054620001a19062000c9b565b80601f0160208091040260200160405190810160405280929190818152602001828054620001cf9062000c9b565b8015620002205780601f10620001f45761010080835404028352916020019162000220565b820191906000526020600020905b8154815290600101906020018083116200020257829003601f168201915b50505050506200024562000239620003b060201b60201c565b620003b860201b60201c565b81600490805190602001906200025d92919062000838565b5080600590805190602001906200027692919062000838565b5050506000600660006101000a81548160ff0219169083151502179055508051825114620002db576040517f08c379a0000000000000000000000000000000000000000000000000000000008152600401620002d29062000d57565b60405180910390fd5b600082511162000322576040517f08c379a0000000000000000000000000000000000000000000000000000000008152600401620003199062000dc9565b60405180910390fd5b60005b825181101562000391576200037b83828151811062000349576200034862000deb565b5b602002602001015183838151811062000367576200036662000deb565b5b60200260200101516200047c60201b60201c565b8080620003889062000e49565b91505062000325565b505050620003a830601754620006b560201b60201c565b505062001173565b600033905090565b60008060009054906101000a900473ffffffffffffffffffffffffffffffffffffffff169050816000806101000a81548173ffffffffffffffffffffffffffffffffffffffff021916908373ffffffffffffffffffffffffffffffffffffffff1602179055508173ffffffffffffffffffffffffffffffffffffffff168173ffffffffffffffffffffffffffffffffffffffff167f8be0079c531659141344cd1fd0a4f28419497f9722a3daafe3b4186f6b6457e060405160405180910390a35050565b600073ffffffffffffffffffffffffffffffffffffffff168273ffffffffffffffffffffffffffffffffffffffff1603620004ee576040517f08c379a0000000000000000000000000000000000000000000000000000000008152600401620004e59062000f0c565b60405180910390fd5b6000811162000534576040517f08c379a00000000000000000000000000000000000000000000000000000000081526004016200052b9062000f7e565b60405180910390fd5b6000600960008473ffffffffffffffffffffffffffffffffffffffff1673ffffffffffffffffffffffffffffffffffffffff1681526020019081526020016000205414620005b9576040517f08c379a0000000000000000000000000000000000000000000000000000000008152600401620005b09062001016565b60405180910390fd5b600b829080600181540180825580915050600190039060005260206000200160009091909190916101000a81548173ffffffffffffffffffffffffffffffffffffffff021916908373ffffffffffffffffffffffffffffffffffffffff16021790555080600960008473ffffffffffffffffffffffffffffffffffffffff1673ffffffffffffffffffffffffffffffffffffffff168152602001908152602001600020819055508060075462000670919062001038565b6007819055507f40c340f65e17194d14ddddb073d3c9f888e3cb52b5aae0c6c7706b4fbc905fac8282604051620006a9929190620010b7565b60405180910390a15050565b600073ffffffffffffffffffffffffffffffffffffffff168273ffffffffffffffffffffffffffffffffffffffff160362000727576040517f08c379a00000000000000000000000000000000000000000000000000000000081526004016200071e9062001134565b60405180910390fd5b6200073b600083836200082e60201b60201c565b80600360008282546200074f919062001038565b9250508190555080600160008473ffffffffffffffffffffffffffffffffffffffff1673ffffffffffffffffffffffffffffffffffffffff1681526020019081526020016000206000828254620007a7919062001038565b925050819055508173ffffffffffffffffffffffffffffffffffffffff16600073ffffffffffffffffffffffffffffffffffffffff167fddf252ad1be2c89b69c2b068fc378daa952ba7f163c4a11628f55a4df523b3ef836040516200080e919062001156565b60405180910390a36200082a600083836200083360201b60201c565b5050565b505050565b505050565b828054620008469062000c9b565b90600052602060002090601f0160209004810192826200086a5760008555620008b6565b82601f106200088557805160ff1916838001178555620008b6565b82800160010185558215620008b6579182015b82811115620008b557825182559160200191906001019062000898565b5b509050620008c59190620008c9565b5090565b5b80821115620008e4576000816000905550600101620008ca565b5090565b6000604051905090565b600080fd5b600080fd5b600080fd5b6000601f19601f8301169050919050565b7f4e487b7100000000000000000000000000000000000000000000000000000000600052604160045260246000fd5b6200094c8262000901565b810181811067ffffffffffffffff821117156200096e576200096d62000912565b5b80604052505050565b600062000983620008e8565b905062000991828262000941565b919050565b600067ffffffffffffffff821115620009b457620009b362000912565b5b602082029050602081019050919050565b600080fd5b600073ffffffffffffffffffffffffffffffffffffffff82169050919050565b6000620009f782620009ca565b9050919050565b62000a0981620009ea565b811462000a1557600080fd5b50565b60008151905062000a2981620009fe565b92915050565b600062000a4662000a408462000996565b62000977565b9050808382526020820190506020840283018581111562000a6c5762000a6b620009c5565b5b835b8181101562000a99578062000a84888262000a18565b84526020840193505060208101905062000a6e565b5050509392505050565b600082601f83011262000abb5762000aba620008fc565b5b815162000acd84826020860162000a2f565b91505092915050565b600067ffffffffffffffff82111562000af45762000af362000912565b5b602082029050602081019050919050565b6000819050919050565b62000b1a8162000b05565b811462000b2657600080fd5b50565b60008151905062000b3a8162000b0f565b92915050565b600062000b5762000b518462000ad6565b62000977565b9050808382526020820190506020840283018581111562000b7d5762000b7c620009c5565b5b835b8181101562000baa578062000b95888262000b29565b84526020840193505060208101905062000b7f565b5050509392505050565b600082601f83011262000bcc5762000bcb620008fc565b5b815162000bde84826020860162000b40565b91505092915050565b6000806040838503121562000c015762000c00620008f2565b5b600083015167ffffffffffffffff81111562000c225762000c21620008f7565b5b62000c308582860162000aa3565b925050602083015167ffffffffffffffff81111562000c545762000c53620008f7565b5b62000c628582860162000bb4565b9150509250929050565b7f4e487b7100000000000000000000000000000000000000000000000000000000600052602260045260246000fd5b6000600282049050600182168062000cb457607f821691505b60208210810362000cca5762000cc962000c6c565b5b50919050565b600082825260208201905092915050565b7f5061796d656e7453706c69747465723a2070617965657320616e64207368617260008201527f6573206c656e677468206d69736d617463680000000000000000000000000000602082015250565b600062000d3f60328362000cd0565b915062000d4c8262000ce1565b604082019050919050565b6000602082019050818103600083015262000d728162000d30565b9050919050565b7f5061796d656e7453706c69747465723a206e6f20706179656573000000000000600082015250565b600062000db1601a8362000cd0565b915062000dbe8262000d79565b602082019050919050565b6000602082019050818103600083015262000de48162000da2565b9050919050565b7f4e487b7100000000000000000000000000000000000000000000000000000000600052603260045260246000fd5b7f4e487b7100000000000000000000000000000000000000000000000000000000600052601160045260246000fd5b600062000e568262000b05565b91507fffffffffffffffffffffffffffffffffffffffffffffffffffffffffffffffff820362000e8b5762000e8a62000e1a565b5b600182019050919050565b7f5061796d656e7453706c69747465723a206163636f756e74206973207468652060008201527f7a65726f20616464726573730000000000000000000000000000000000000000602082015250565b600062000ef4602c8362000cd0565b915062000f018262000e96565b604082019050919050565b6000602082019050818103600083015262000f278162000ee5565b9050919050565b7f5061796d656e7453706c69747465723a20736861726573206172652030000000600082015250565b600062000f66601d8362000cd0565b915062000f738262000f2e565b602082019050919050565b6000602082019050818103600083015262000f998162000f57565b9050919050565b7f5061796d656e7453706c69747465723a206163636f756e7420616c726561647960008201527f2068617320736861726573000000000000000000000000000000000000000000602082015250565b600062000ffe602b8362000cd0565b91506200100b8262000fa0565b604082019050919050565b60006020820190508181036000830152620010318162000fef565b9050919050565b6000620010458262000b05565b9150620010528362000b05565b9250827fffffffffffffffffffffffffffffffffffffffffffffffffffffffffffffffff038211156200108a576200108962000e1a565b5b828201905092915050565b620010a081620009ea565b82525050565b620010b18162000b05565b82525050565b6000604082019050620010ce600083018562001095565b620010dd6020830184620010a6565b9392505050565b7f41524332303a206d696e7420746f20746865207a65726f206164647265737300600082015250565b60006200111c601f8362000cd0565b91506200112982620010e4565b602082019050919050565b600060208201905081810360008301526200114f816200110d565b9050919050565b60006020820190506200116d6000830184620010a6565b92915050565b613d7880620011836000396000f3fe60806040526004361061021e5760003560e01c80635c975abb11610123578063a9059cbb116100ab578063e097e7b91161006f578063e097e7b91461085f578063e33b7de314610876578063ec8ac4d8146108a1578063f2fde38b146108bd578063fa1acb5c146108e657610235565b8063a9059cbb14610740578063b138d5001461077d578063ce7c2ac2146107a8578063d79779b2146107e5578063dd62ed3e1461082257610235565b80638da5cb5b116100f25780638da5cb5b1461064757806395d89b41146106725780639852595c1461069d57806399e57625146106da578063a457c2d71461070357610235565b80635c975abb1461058b57806370a08231146105b6578063715018a6146105f35780638b83209b1461060a57610235565b80633a98ef39116101a657806340d489581161017557806340d48958146104b857806348b75044146104e357806351cff8d91461050c57806352150d4b146105355780635868c32a1461056057610235565b80633a98ef39146103fc5780633e0a322d146104275780634042b66f14610450578063406072a91461047b57610235565b806323b872dd116101ed57806323b872dd146103035780632c4e722e14610340578063313ce5671461036b57806339509351146103965780633a4dc2fb146103d357610235565b806306fdde0314610247578063095ea7b31461027257806318160ddd146102af57806319165587146102da57610235565b366102355761023361022e610911565b610919565b005b610245610240610911565b610919565b005b34801561025357600080fd5b5061025c610a15565b60405161026991906126c4565b60405180910390f35b34801561027e57600080fd5b506102996004803603810190610294919061278e565b610aa7565b6040516102a691906127e9565b60405180910390f35b3480156102bb57600080fd5b506102c4610aca565b6040516102d19190612813565b60405180910390f35b3480156102e657600080fd5b5061030160048036038101906102fc919061286c565b610ad4565b005b34801561030f57600080fd5b5061032a60048036038101906103259190612899565b610c7e565b60405161033791906127e9565b60405180910390f35b34801561034c57600080fd5b50610355610cad565b6040516103629190612813565b60405180910390f35b34801561037757600080fd5b50610380610cb3565b60405161038d9190612908565b60405180910390f35b3480156103a257600080fd5b506103bd60048036038101906103b8919061278e565b610cbc565b6040516103ca91906127e9565b60405180910390f35b3480156103df57600080fd5b506103fa60048036038101906103f59190612923565b610cf3565b005b34801561040857600080fd5b50610411610d79565b60405161041e9190612813565b60405180910390f35b34801561043357600080fd5b5061044e60048036038101906104499190612923565b610d83565b005b34801561045c57600080fd5b50610465610e1d565b6040516104729190612813565b60405180910390f35b34801561048757600080fd5b506104a2600480360381019061049d919061298e565b610e23565b6040516104af9190612813565b60405180910390f35b3480156104c457600080fd5b506104cd610eaa565b6040516104da9190612813565b60405180910390f35b3480156104ef57600080fd5b5061050a6004803603810190610505919061298e565b610eb0565b005b34801561051857600080fd5b50610533600480360381019061052e91906129ce565b611168565b005b34801561054157600080fd5b5061054a6112c0565b6040516105579190612813565b60405180910390f35b34801561056c57600080fd5b506105756112c6565b6040516105829190612813565b60405180910390f35b34801561059757600080fd5b506105a06112cc565b6040516105ad91906127e9565b60405180910390f35b3480156105c257600080fd5b506105dd60048036038101906105d891906129ce565b6112e3565b6040516105ea9190612813565b60405180910390f35b3480156105ff57600080fd5b5061060861132c565b005b34801561061657600080fd5b50610631600480360381019061062c9190612923565b6113b4565b60405161063e9190612a0a565b60405180910390f35b34801561065357600080fd5b5061065c6113fc565b6040516106699190612a0a565b60405180910390f35b34801561067e57600080fd5b50610687611425565b60405161069491906126c4565b60405180910390f35b3480156106a957600080fd5b506106c460048036038101906106bf91906129ce565b6114b7565b6040516106d19190612813565b60405180910390f35b3480156106e657600080fd5b5061070160048036038101906106fc9190612b6d565b611500565b005b34801561070f57600080fd5b5061072a6004803603810190610725919061278e565b611617565b60405161073791906127e9565b60405180910390f35b34801561074c57600080fd5b506107676004803603810190610762919061278e565b61168e565b60405161077491906127e9565b60405180910390f35b34801561078957600080fd5b506107926116b1565b60405161079f9190612813565b60405180910390f35b3480156107b457600080fd5b506107cf60048036038101906107ca91906129ce565b6116b7565b6040516107dc9190612813565b60405180910390f35b3480156107f157600080fd5b5061080c60048036038101906108079190612bb6565b611700565b6040516108199190612813565b60405180910390f35b34801561082e57600080fd5b5061084960048036038101906108449190612be3565b611749565b6040516108569190612813565b60405180910390f35b34801561086b57600080fd5b506108746117d0565b005b34801561088257600080fd5b5061088b6118a6565b6040516108989190612813565b60405180910390f35b6108bb60048036038101906108b691906129ce565b610919565b005b3480156108c957600080fd5b506108e460048036038101906108df91906129ce565b6118b0565b005b3480156108f257600080fd5b506108fb6119a7565b6040516109089190612813565b60405180910390f35b600033905090565b600034905061092882826119ad565b600061093382611c0b565b905060006002826109449190612c81565b905080601960008673ffffffffffffffffffffffffffffffffffffffff1673ffffffffffffffffffffffffffffffffffffffff16815260200190815260200160002081905550826010546109989190612cb2565b6010819055506109a88482611c22565b8373ffffffffffffffffffffffffffffffffffffffff163373ffffffffffffffffffffffffffffffffffffffff167f623b3804fa71d67900d064613da8f94b9617215ee90799290593e1745087ad188584604051610a07929190612d08565b60405180910390a350505050565b606060048054610a2490612d60565b80601f0160208091040260200160405190810160405280929190818152602001828054610a5090612d60565b8015610a9d5780601f10610a7257610100808354040283529160200191610a9d565b820191906000526020600020905b815481529060010190602001808311610a8057829003601f168201915b5050505050905090565b600080610ab2610911565b9050610abf818585611c31565b600191505092915050565b6000600354905090565b6000600960008373ffffffffffffffffffffffffffffffffffffffff1673ffffffffffffffffffffffffffffffffffffffff1681526020019081526020016000205411610b56576040517f08c379a0000000000000000000000000000000000000000000000000000000008152600401610b4d90612e03565b60405180910390fd5b6000610b606118a6565b47610b6b9190612cb2565b90506000610b828383610b7d866114b7565b611dfa565b905060008103610bc7576040517f08c379a0000000000000000000000000000000000000000000000000000000008152600401610bbe90612e95565b60405180910390fd5b80600a60008573ffffffffffffffffffffffffffffffffffffffff1673ffffffffffffffffffffffffffffffffffffffff1681526020019081526020016000206000828254610c169190612cb2565b925050819055508060086000828254610c2f9190612cb2565b92505081905550610c408382611e68565b7fdf20fd1e76bc69d672e4814fafb2c449bba3a5369d8359adf9e05e6fde87b0568382604051610c71929190612f14565b60405180910390a1505050565b600080610c89610911565b9050610c96858285611f5c565b610ca1858585611fe8565b60019150509392505050565b60155481565b60006012905090565b600080610cc7610911565b9050610ce8818585610cd98589611749565b610ce39190612cb2565b611c31565b600191505092915050565b610cfb610911565b73ffffffffffffffffffffffffffffffffffffffff16610d196113fc565b73ffffffffffffffffffffffffffffffffffffffff1614610d6f576040517f08c379a0000000000000000000000000000000000000000000000000000000008152600401610d6690612f89565b60405180910390fd5b8060138190555050565b6000600754905090565b610d8b610911565b73ffffffffffffffffffffffffffffffffffffffff16610da96113fc565b73ffffffffffffffffffffffffffffffffffffffff1614610dff576040517f08c379a0000000000000000000000000000000000000000000000000000000008152600401610df690612f89565b60405180910390fd5b8060118190555060145481610e149190612cb2565b60128190555050565b60105481565b6000600d60008473ffffffffffffffffffffffffffffffffffffffff1673ffffffffffffffffffffffffffffffffffffffff16815260200190815260200160002060008373ffffffffffffffffffffffffffffffffffffffff1673ffffffffffffffffffffffffffffffffffffffff16815260200190815260200160002054905092915050565b60125481565b6000600960008373ffffffffffffffffffffffffffffffffffffffff1673ffffffffffffffffffffffffffffffffffffffff1681526020019081526020016000205411610f32576040517f08c379a0000000000000000000000000000000000000000000000000000000008152600401610f2990612e03565b60405180910390fd5b6000610f3d83611700565b8373ffffffffffffffffffffffffffffffffffffffff166370a08231306040518263ffffffff1660e01b8152600401610f769190612a0a565b602060405180830381865afa158015610f93573d6000803e3d6000fd5b505050506040513d601f19601f82011682018060405250810190610fb79190612fbe565b610fc19190612cb2565b90506000610fd98383610fd48787610e23565b611dfa565b90506000810361101e576040517f08c379a000000000000000000000000000000000000000000000000000000000815260040161101590612e95565b60405180910390fd5b80600d60008673ffffffffffffffffffffffffffffffffffffffff1673ffffffffffffffffffffffffffffffffffffffff16815260200190815260200160002060008573ffffffffffffffffffffffffffffffffffffffff1673ffffffffffffffffffffffffffffffffffffffff16815260200190815260200160002060008282546110aa9190612cb2565b9250508190555080600c60008673ffffffffffffffffffffffffffffffffffffffff1673ffffffffffffffffffffffffffffffffffffffff16815260200190815260200160002060008282546111009190612cb2565b9250508190555061111284848361226a565b8373ffffffffffffffffffffffffffffffffffffffff167fa5e5e6cdd70158c5d539101264953655b65903a24bf6ddea572dc3fed1bce2b0848360405161115a929190612feb565b60405180910390a250505050565b6000601354036111ad576040517f08c379a00000000000000000000000000000000000000000000000000000000081526004016111a490613086565b60405180910390fd5b6203f4806013546111be9190612cb2565b42116111ff576040517f08c379a00000000000000000000000000000000000000000000000000000000081526004016111f6906130f2565b60405180910390fd5b600073ffffffffffffffffffffffffffffffffffffffff168173ffffffffffffffffffffffffffffffffffffffff160361126e576040517f08c379a00000000000000000000000000000000000000000000000000000000081526004016112659061315e565b60405180910390fd5b6000601960008373ffffffffffffffffffffffffffffffffffffffff1673ffffffffffffffffffffffffffffffffffffffff1681526020019081526020016000205490506112bc8282611c22565b5050565b60165481565b60145481565b6000600660009054906101000a900460ff16905090565b6000600160008373ffffffffffffffffffffffffffffffffffffffff1673ffffffffffffffffffffffffffffffffffffffff168152602001908152602001600020549050919050565b611334610911565b73ffffffffffffffffffffffffffffffffffffffff166113526113fc565b73ffffffffffffffffffffffffffffffffffffffff16146113a8576040517f08c379a000000000000000000000000000000000000000000000000000000000815260040161139f90612f89565b60405180910390fd5b6113b260006122f0565b565b6000600b82815481106113ca576113c961317e565b5b9060005260206000200160009054906101000a900473ffffffffffffffffffffffffffffffffffffffff169050919050565b60008060009054906101000a900473ffffffffffffffffffffffffffffffffffffffff16905090565b60606005805461143490612d60565b80601f016020809104026020016040519081016040528092919081815260200182805461146090612d60565b80156114ad5780601f10611482576101008083540402835291602001916114ad565b820191906000526020600020905b81548152906001019060200180831161149057829003601f168201915b5050505050905090565b6000600a60008373ffffffffffffffffffffffffffffffffffffffff1673ffffffffffffffffffffffffffffffffffffffff168152602001908152602001600020549050919050565b611508610911565b73ffffffffffffffffffffffffffffffffffffffff166115266113fc565b73ffffffffffffffffffffffffffffffffffffffff161461157c576040517f08c379a000000000000000000000000000000000000000000000000000000000815260040161157390612f89565b60405180910390fd5b60005b81518160ff16101561161357600160186000848460ff16815181106115a7576115a661317e565b5b602002602001015173ffffffffffffffffffffffffffffffffffffffff1673ffffffffffffffffffffffffffffffffffffffff16815260200190815260200160002060006101000a81548160ff021916908315150217905550808061160b906131ad565b91505061157f565b5050565b600080611622610911565b905060006116308286611749565b905083811015611675576040517f08c379a000000000000000000000000000000000000000000000000000000000815260040161166c90613248565b60405180910390fd5b6116828286868403611c31565b60019250505092915050565b600080611699610911565b90506116a6818585611fe8565b600191505092915050565b60175481565b6000600960008373ffffffffffffffffffffffffffffffffffffffff1673ffffffffffffffffffffffffffffffffffffffff168152602001908152602001600020549050919050565b6000600c60008373ffffffffffffffffffffffffffffffffffffffff1673ffffffffffffffffffffffffffffffffffffffff168152602001908152602001600020549050919050565b6000600260008473ffffffffffffffffffffffffffffffffffffffff1673ffffffffffffffffffffffffffffffffffffffff16815260200190815260200160002060008373ffffffffffffffffffffffffffffffffffffffff1673ffffffffffffffffffffffffffffffffffffffff16815260200190815260200160002054905092915050565b6117d8610911565b73ffffffffffffffffffffffffffffffffffffffff166117f66113fc565b73ffffffffffffffffffffffffffffffffffffffff161461184c576040517f08c379a000000000000000000000000000000000000000000000000000000000815260040161184390612f89565b60405180910390fd5b6012544210611890576040517f08c379a0000000000000000000000000000000000000000000000000000000008152600401611887906132b4565b60405180910390fd5b6118a3303361189e306112e3565b610c7e565b50565b6000600854905090565b6118b8610911565b73ffffffffffffffffffffffffffffffffffffffff166118d66113fc565b73ffffffffffffffffffffffffffffffffffffffff161461192c576040517f08c379a000000000000000000000000000000000000000000000000000000000815260040161192390612f89565b60405180910390fd5b600073ffffffffffffffffffffffffffffffffffffffff168173ffffffffffffffffffffffffffffffffffffffff160361199b576040517f08c379a000000000000000000000000000000000000000000000000000000000815260040161199290613346565b60405180910390fd5b6119a4816122f0565b50565b60115481565b60115442116119f1576040517f08c379a00000000000000000000000000000000000000000000000000000000081526004016119e8906133b2565b60405180910390fd5b6012544210611a35576040517f08c379a0000000000000000000000000000000000000000000000000000000008152600401611a2c906132b4565b60405180910390fd5b6000611a40306112e3565b11611a80576040517f08c379a0000000000000000000000000000000000000000000000000000000008152600401611a779061341e565b60405180910390fd5b611a886112cc565b15611ac8576040517f08c379a0000000000000000000000000000000000000000000000000000000008152600401611abf9061348a565b60405180910390fd5b600073ffffffffffffffffffffffffffffffffffffffff168273ffffffffffffffffffffffffffffffffffffffff1603611b37576040517f08c379a0000000000000000000000000000000000000000000000000000000008152600401611b2e906134f6565b60405180910390fd5b601860008373ffffffffffffffffffffffffffffffffffffffff1673ffffffffffffffffffffffffffffffffffffffff16815260200190815260200160002060009054906101000a900460ff16611bc3576040517f08c379a0000000000000000000000000000000000000000000000000000000008152600401611bba90613562565b60405180910390fd5b6016548114611c07576040517f08c379a0000000000000000000000000000000000000000000000000000000008152600401611bfe906135ce565b60405180910390fd5b5050565b600060155482611c1b91906135ee565b9050919050565b611c2d308383611fe8565b5050565b600073ffffffffffffffffffffffffffffffffffffffff168373ffffffffffffffffffffffffffffffffffffffff1603611ca0576040517f08c379a0000000000000000000000000000000000000000000000000000000008152600401611c97906136ba565b60405180910390fd5b600073ffffffffffffffffffffffffffffffffffffffff168273ffffffffffffffffffffffffffffffffffffffff1603611d0f576040517f08c379a0000000000000000000000000000000000000000000000000000000008152600401611d069061374c565b60405180910390fd5b80600260008573ffffffffffffffffffffffffffffffffffffffff1673ffffffffffffffffffffffffffffffffffffffff16815260200190815260200160002060008473ffffffffffffffffffffffffffffffffffffffff1673ffffffffffffffffffffffffffffffffffffffff168152602001908152602001600020819055508173ffffffffffffffffffffffffffffffffffffffff168373ffffffffffffffffffffffffffffffffffffffff167f8c5be1e5ebec7d5bd14f71427d1e84f3dd0314c0f7b2291e5b200ac8c7c3b92583604051611ded9190612813565b60405180910390a3505050565b600081600754600960008773ffffffffffffffffffffffffffffffffffffffff1673ffffffffffffffffffffffffffffffffffffffff1681526020019081526020016000205485611e4b91906135ee565b611e559190612c81565b611e5f919061376c565b90509392505050565b80471015611eab576040517f08c379a0000000000000000000000000000000000000000000000000000000008152600401611ea2906137ec565b60405180910390fd5b60008273ffffffffffffffffffffffffffffffffffffffff1682604051611ed19061383d565b60006040518083038185875af1925050503d8060008114611f0e576040519150601f19603f3d011682016040523d82523d6000602084013e611f13565b606091505b5050905080611f57576040517f08c379a0000000000000000000000000000000000000000000000000000000008152600401611f4e906138c4565b60405180910390fd5b505050565b6000611f688484611749565b90507fffffffffffffffffffffffffffffffffffffffffffffffffffffffffffffffff8114611fe25781811015611fd4576040517f08c379a0000000000000000000000000000000000000000000000000000000008152600401611fcb90613930565b60405180910390fd5b611fe18484848403611c31565b5b50505050565b600073ffffffffffffffffffffffffffffffffffffffff168373ffffffffffffffffffffffffffffffffffffffff1603612057576040517f08c379a000000000000000000000000000000000000000000000000000000000815260040161204e906139c2565b60405180910390fd5b600073ffffffffffffffffffffffffffffffffffffffff168273ffffffffffffffffffffffffffffffffffffffff16036120c6576040517f08c379a00000000000000000000000000000000000000000000000000000000081526004016120bd90613a54565b60405180910390fd5b6120d18383836123b4565b6000600160008573ffffffffffffffffffffffffffffffffffffffff1673ffffffffffffffffffffffffffffffffffffffff16815260200190815260200160002054905081811015612158576040517f08c379a000000000000000000000000000000000000000000000000000000000815260040161214f90613ae6565b60405180910390fd5b818103600160008673ffffffffffffffffffffffffffffffffffffffff1673ffffffffffffffffffffffffffffffffffffffff1681526020019081526020016000208190555081600160008573ffffffffffffffffffffffffffffffffffffffff1673ffffffffffffffffffffffffffffffffffffffff16815260200190815260200160002060008282546121ed9190612cb2565b925050819055508273ffffffffffffffffffffffffffffffffffffffff168473ffffffffffffffffffffffffffffffffffffffff167fddf252ad1be2c89b69c2b068fc378daa952ba7f163c4a11628f55a4df523b3ef846040516122519190612813565b60405180910390a36122648484846123b9565b50505050565b6122eb8363a9059cbb60e01b8484604051602401612289929190612feb565b604051602081830303815290604052907bffffffffffffffffffffffffffffffffffffffffffffffffffffffff19166020820180517bffffffffffffffffffffffffffffffffffffffffffffffffffffffff83818316178352505050506123be565b505050565b60008060009054906101000a900473ffffffffffffffffffffffffffffffffffffffff169050816000806101000a81548173ffffffffffffffffffffffffffffffffffffffff021916908373ffffffffffffffffffffffffffffffffffffffff1602179055508173ffffffffffffffffffffffffffffffffffffffff168173ffffffffffffffffffffffffffffffffffffffff167f8be0079c531659141344cd1fd0a4f28419497f9722a3daafe3b4186f6b6457e060405160405180910390a35050565b505050565b505050565b6000612420826040518060400160405280602081526020017f5361666541524332303a206c6f772d6c6576656c2063616c6c206661696c65648152508573ffffffffffffffffffffffffffffffffffffffff166124859092919063ffffffff16565b905060008151111561248057808060200190518101906124409190613b32565b61247f576040517f08c379a000000000000000000000000000000000000000000000000000000000815260040161247690613bd1565b60405180910390fd5b5b505050565b6060612494848460008561249d565b90509392505050565b6060824710156124e2576040517f08c379a00000000000000000000000000000000000000000000000000000000081526004016124d990613c63565b60405180910390fd5b6124eb856125b1565b61252a576040517f08c379a000000000000000000000000000000000000000000000000000000000815260040161252190613ccf565b60405180910390fd5b6000808673ffffffffffffffffffffffffffffffffffffffff1685876040516125539190613d2b565b60006040518083038185875af1925050503d8060008114612590576040519150601f19603f3d011682016040523d82523d6000602084013e612595565b606091505b50915091506125a58282866125c4565b92505050949350505050565b600080823b905060008111915050919050565b606083156125d457829050612624565b6000835111156125e75782518084602001fd5b816040517f08c379a000000000000000000000000000000000000000000000000000000000815260040161261b91906126c4565b60405180910390fd5b9392505050565b600081519050919050565b600082825260208201905092915050565b60005b8381101561266557808201518184015260208101905061264a565b83811115612674576000848401525b50505050565b6000601f19601f8301169050919050565b60006126968261262b565b6126a08185612636565b93506126b0818560208601612647565b6126b98161267a565b840191505092915050565b600060208201905081810360008301526126de818461268b565b905092915050565b6000604051905090565b600080fd5b600080fd5b600073ffffffffffffffffffffffffffffffffffffffff82169050919050565b6000612725826126fa565b9050919050565b6127358161271a565b811461274057600080fd5b50565b6000813590506127528161272c565b92915050565b6000819050919050565b61276b81612758565b811461277657600080fd5b50565b60008135905061278881612762565b92915050565b600080604083850312156127a5576127a46126f0565b5b60006127b385828601612743565b92505060206127c485828601612779565b9150509250929050565b60008115159050919050565b6127e3816127ce565b82525050565b60006020820190506127fe60008301846127da565b92915050565b61280d81612758565b82525050565b60006020820190506128286000830184612804565b92915050565b6000612839826126fa565b9050919050565b6128498161282e565b811461285457600080fd5b50565b60008135905061286681612840565b92915050565b600060208284031215612882576128816126f0565b5b600061289084828501612857565b91505092915050565b6000806000606084860312156128b2576128b16126f0565b5b60006128c086828701612743565b93505060206128d186828701612743565b92505060406128e286828701612779565b9150509250925092565b600060ff82169050919050565b612902816128ec565b82525050565b600060208201905061291d60008301846128f9565b92915050565b600060208284031215612939576129386126f0565b5b600061294784828501612779565b91505092915050565b600061295b8261271a565b9050919050565b61296b81612950565b811461297657600080fd5b50565b60008135905061298881612962565b92915050565b600080604083850312156129a5576129a46126f0565b5b60006129b385828601612979565b92505060206129c485828601612743565b9150509250929050565b6000602082840312156129e4576129e36126f0565b5b60006129f284828501612743565b91505092915050565b612a048161271a565b82525050565b6000602082019050612a1f60008301846129fb565b92915050565b600080fd5b7f4e487b7100000000000000000000000000000000000000000000000000000000600052604160045260246000fd5b612a628261267a565b810181811067ffffffffffffffff82111715612a8157612a80612a2a565b5b80604052505050565b6000612a946126e6565b9050612aa08282612a59565b919050565b600067ffffffffffffffff821115612ac057612abf612a2a565b5b602082029050602081019050919050565b600080fd5b6000612ae9612ae484612aa5565b612a8a565b90508083825260208201905060208402830185811115612b0c57612b0b612ad1565b5b835b81811015612b355780612b218882612743565b845260208401935050602081019050612b0e565b5050509392505050565b600082601f830112612b5457612b53612a25565b5b8135612b64848260208601612ad6565b91505092915050565b600060208284031215612b8357612b826126f0565b5b600082013567ffffffffffffffff811115612ba157612ba06126f5565b5b612bad84828501612b3f565b91505092915050565b600060208284031215612bcc57612bcb6126f0565b5b6000612bda84828501612979565b91505092915050565b60008060408385031215612bfa57612bf96126f0565b5b6000612c0885828601612743565b9250506020612c1985828601612743565b9150509250929050565b7f4e487b7100000000000000000000000000000000000000000000000000000000600052601260045260246000fd5b7f4e487b7100000000000000000000000000000000000000000000000000000000600052601160045260246000fd5b6000612c8c82612758565b9150612c9783612758565b925082612ca757612ca6612c23565b5b828204905092915050565b6000612cbd82612758565b9150612cc883612758565b9250827fffffffffffffffffffffffffffffffffffffffffffffffffffffffffffffffff03821115612cfd57612cfc612c52565b5b828201905092915050565b6000604082019050612d1d6000830185612804565b612d2a6020830184612804565b9392505050565b7f4e487b7100000000000000000000000000000000000000000000000000000000600052602260045260246000fd5b60006002820490506001821680612d7857607f821691505b602082108103612d8b57612d8a612d31565b5b50919050565b7f5061796d656e7453706c69747465723a206163636f756e7420686173206e6f2060008201527f7368617265730000000000000000000000000000000000000000000000000000602082015250565b6000612ded602683612636565b9150612df882612d91565b604082019050919050565b60006020820190508181036000830152612e1c81612de0565b9050919050565b7f5061796d656e7453706c69747465723a206163636f756e74206973206e6f742060008201527f647565207061796d656e74000000000000000000000000000000000000000000602082015250565b6000612e7f602b83612636565b9150612e8a82612e23565b604082019050919050565b60006020820190508181036000830152612eae81612e72565b9050919050565b6000819050919050565b6000612eda612ed5612ed0846126fa565b612eb5565b6126fa565b9050919050565b6000612eec82612ebf565b9050919050565b6000612efe82612ee1565b9050919050565b612f0e81612ef3565b82525050565b6000604082019050612f296000830185612f05565b612f366020830184612804565b9392505050565b7f4f776e61626c653a2063616c6c6572206973206e6f7420746865206f776e6572600082015250565b6000612f73602083612636565b9150612f7e82612f3d565b602082019050919050565b60006020820190508181036000830152612fa281612f66565b9050919050565b600081519050612fb881612762565b92915050565b600060208284031215612fd457612fd36126f0565b5b6000612fe284828501612fa9565b91505092915050565b600060408201905061300060008301856129fb565b61300d6020830184612804565b9392505050565b7f56657374696e672074696d657374616d7020686173206e6f74206265656e207360008201527f6574207965740000000000000000000000000000000000000000000000000000602082015250565b6000613070602683612636565b915061307b82613014565b604082019050919050565b6000602082019050818103600083015261309f81613063565b9050919050565b7f56657374696e6720706572696f64206973206f76657200000000000000000000600082015250565b60006130dc601683612636565b91506130e7826130a6565b602082019050919050565b6000602082019050818103600083015261310b816130cf565b9050919050565b7f42455032303a205472616e7366657220746f207a65726f206164647265737300600082015250565b6000613148601f83612636565b915061315382613112565b602082019050919050565b600060208201905081810360008301526131778161313b565b9050919050565b7f4e487b7100000000000000000000000000000000000000000000000000000000600052603260045260246000fd5b60006131b8826128ec565b915060ff82036131cb576131ca612c52565b5b600182019050919050565b7f41524332303a2064656372656173656420616c6c6f77616e63652062656c6f7760008201527f207a65726f000000000000000000000000000000000000000000000000000000602082015250565b6000613232602583612636565b915061323d826131d6565b604082019050919050565b6000602082019050818103600083015261326181613225565b9050919050565b7f50726573616c652068617320616c72656164792066696e697368656400000000600082015250565b600061329e601c83612636565b91506132a982613268565b602082019050919050565b600060208201905081810360008301526132cd81613291565b9050919050565b7f4f776e61626c653a206e6577206f776e657220697320746865207a65726f206160008201527f6464726573730000000000000000000000000000000000000000000000000000602082015250565b6000613330602683612636565b915061333b826132d4565b604082019050919050565b6000602082019050818103600083015261335f81613323565b9050919050565b7f50726573616c6520686173206e6f742073746172746564207965740000000000600082015250565b600061339c601b83612636565b91506133a782613366565b602082019050919050565b600060208201905081810360008301526133cb8161338f565b9050919050565b7f4e6f20746f6b656e73206c656674000000000000000000000000000000000000600082015250565b6000613408600e83612636565b9150613413826133d2565b602082019050919050565b60006020820190508181036000830152613437816133fb565b9050919050565b7f746f6b656e207472616e73666572207768696c65207061757365640000000000600082015250565b6000613474601b83612636565b915061347f8261343e565b602082019050919050565b600060208201905081810360008301526134a381613467565b9050919050565b7f4275796572206164646573732063616e6e6f7420626520300000000000000000600082015250565b60006134e0601883612636565b91506134eb826134aa565b602082019050919050565b6000602082019050818103600083015261350f816134d3565b9050919050565b7f4275796572206e6f742077686974656c69737465640000000000000000000000600082015250565b600061354c601583612636565b915061355782613516565b602082019050919050565b6000602082019050818103600083015261357b8161353f565b9050919050565b7f5072696365206e6f7420636f7272656374000000000000000000000000000000600082015250565b60006135b8601183612636565b91506135c382613582565b602082019050919050565b600060208201905081810360008301526135e7816135ab565b9050919050565b60006135f982612758565b915061360483612758565b9250817fffffffffffffffffffffffffffffffffffffffffffffffffffffffffffffffff048311821515161561363d5761363c612c52565b5b828202905092915050565b7f41524332303a20617070726f76652066726f6d20746865207a65726f2061646460008201527f7265737300000000000000000000000000000000000000000000000000000000602082015250565b60006136a4602483612636565b91506136af82613648565b604082019050919050565b600060208201905081810360008301526136d381613697565b9050919050565b7f41524332303a20617070726f766520746f20746865207a65726f20616464726560008201527f7373000000000000000000000000000000000000000000000000000000000000602082015250565b6000613736602283612636565b9150613741826136da565b604082019050919050565b6000602082019050818103600083015261376581613729565b9050919050565b600061377782612758565b915061378283612758565b92508282101561379557613794612c52565b5b828203905092915050565b7f416464726573733a20696e73756666696369656e742062616c616e6365000000600082015250565b60006137d6601d83612636565b91506137e1826137a0565b602082019050919050565b60006020820190508181036000830152613805816137c9565b9050919050565b600081905092915050565b50565b600061382760008361380c565b915061383282613817565b600082019050919050565b60006138488261381a565b9150819050919050565b7f416464726573733a20756e61626c6520746f2073656e642076616c75652c207260008201527f6563697069656e74206d61792068617665207265766572746564000000000000602082015250565b60006138ae603a83612636565b91506138b982613852565b604082019050919050565b600060208201905081810360008301526138dd816138a1565b9050919050565b7f41524332303a20696e73756666696369656e7420616c6c6f77616e6365000000600082015250565b600061391a601d83612636565b9150613925826138e4565b602082019050919050565b600060208201905081810360008301526139498161390d565b9050919050565b7f41524332303a207472616e736665722066726f6d20746865207a65726f20616460008201527f6472657373000000000000000000000000000000000000000000000000000000602082015250565b60006139ac602583612636565b91506139b782613950565b604082019050919050565b600060208201905081810360008301526139db8161399f565b9050919050565b7f41524332303a207472616e7366657220746f20746865207a65726f206164647260008201527f6573730000000000000000000000000000000000000000000000000000000000602082015250565b6000613a3e602383612636565b9150613a49826139e2565b604082019050919050565b60006020820190508181036000830152613a6d81613a31565b9050919050565b7f41524332303a207472616e7366657220616d6f756e742065786365656473206260008201527f616c616e63650000000000000000000000000000000000000000000000000000602082015250565b6000613ad0602683612636565b9150613adb82613a74565b604082019050919050565b60006020820190508181036000830152613aff81613ac3565b9050919050565b613b0f816127ce565b8114613b1a57600080fd5b50565b600081519050613b2c81613b06565b92915050565b600060208284031215613b4857613b476126f0565b5b6000613b5684828501613b1d565b91505092915050565b7f5361666541524332303a204152433230206f7065726174696f6e20646964206e60008201527f6f74207375636365656400000000000000000000000000000000000000000000602082015250565b6000613bbb602a83612636565b9150613bc682613b5f565b604082019050919050565b60006020820190508181036000830152613bea81613bae565b9050919050565b7f416464726573733a20696e73756666696369656e742062616c616e636520666f60008201527f722063616c6c0000000000000000000000000000000000000000000000000000602082015250565b6000613c4d602683612636565b9150613c5882613bf1565b604082019050919050565b60006020820190508181036000830152613c7c81613c40565b9050919050565b7f416464726573733a2063616c6c20746f206e6f6e2d636f6e7472616374000000600082015250565b6000613cb9601d83612636565b9150613cc482613c83565b602082019050919050565b60006020820190508181036000830152613ce881613cac565b9050919050565b600081519050919050565b6000613d0582613cef565b613d0f818561380c565b9350613d1f818560208601612647565b80840191505092915050565b6000613d378284613cfa565b91508190509291505056fea2646970667358221220d89acb7bd410f7cd64eb0df3e2c5a07f8cd297ce66ba805684551d34a2ca975064736f6c634300080d0033",
  "immutableReferences": {},
  "source": "// SPDX-License-Identifier: MIT\n\npragma solidity ^0.8.0;\n\nimport \"./Ownable.sol\";\nimport \"./ARC20.sol\";\nimport \"./Pausable.sol\";\nimport \"./PaymentSplitter.sol\";\n\ncontract PrivateSale is Ownable, ARC20, Pausable, PaymentSplitter {\n\n  string _name = \"aMountain\";\n  string _symbol = \"aMTN\";\n\n  // Amount of wei raised\n  uint256 public weiRaised;\n  \n  uint256 public _startTime;\n  uint256 public _endTime;\n\n  uint256 constant THREE_DAYS = 3*24*60*60;\n  uint256 _vestingStartTimestamp = 0;\n\n  uint256 public presaleDuration = 7*24*60*60; // One week\n\n  // How many token units a buyer gets per AVAX\n  uint256 public rate = 10;\n\n  // The price for a package (in AVAX)\n  uint256 public packagePrice = 1* 10 ** 18; // NOTE : For tests purposes\n\n  // Total amount of aMTN that are available for the presale\n  uint256 public presaleAmount = 1_000 * 10 ** 18;\n\n  // For test purposes (testing PaymentSplitter)\n  //address[] _payees = [0x29Fd00FA40c90aec39AC604D875907874f237baA, 0xf235695A38Cd517eBB66C3af0217d68a192ed8b0];\n  //uint256[] _shares = [70,30];\n\n  mapping(address => bool) _isWhitelisted;\n  \n  mapping (address => uint256) tokenHolders;\n\n  /**\n   * Event for token purchase logging\n   * @param purchaser who paid for the tokens\n   * @param beneficiary who got the tokens\n   * @param value weis paid for purchase\n   * @param amount amount of tokens purchased\n   */\n  event TokenPurchase(\n    address indexed purchaser,\n    address indexed beneficiary,\n    uint256 value,\n    uint256 amount\n  );\n\n \n  constructor(address[] memory _payees, uint256[] memory _shares)  ARC20(_name, _symbol) PaymentSplitter(_payees, _shares){\n\n    // Note : the total amount of tokens is minted only once in the constructor\n    _mint(address(this), presaleAmount);\n  }\n\n\n  fallback () external payable {\n    buyTokens(_msgSender());\n  }\n  \n  receive () external payable {\n    buyTokens(_msgSender());\n }\n    \n  // Checks if the presale has started\n  modifier hasStarted()\n  {\n      require(block.timestamp > _startTime, \"Presale has not started yet\");\n      _;\n  }\n  \n  // Checks if the presale has not ended\n  modifier hasNotEnded()\n  {\n      require(block.timestamp < _endTime, \"Presale has already finished\");\n      _;\n  }\n  \n  // Checks that the SC still has tokens \n  modifier hasTokens()\n  {\n      require (balanceOf(address(this)) > 0 , \"No tokens left\");\n      _;\n  }\n\n  // Checks that the SC has not been paused\n  modifier isNotPaused()\n  {\n    require(!paused(), \"token transfer while paused\");\n    _;\n  }\n  \n  // Checks that vesting is over in order to withdraw the last 50% of tokens \n  modifier isVestingFinished()\n  {\n      require(_vestingStartTimestamp!=0, \"Vesting timestamp has not been set yet\");\n      require(block.timestamp > (_vestingStartTimestamp + THREE_DAYS), \"Vesting period is over\");\n      _;   \n      \n  }\n\n  /**\n   * @param startTime Unix timestamp that define the starting time of the presale\n   */ \n  function setStartTime(uint256 startTime) public onlyOwner {\n    _startTime = startTime;\n    _endTime = startTime + presaleDuration;\n  }\n\n\n  /**\n   * @param vestingStartTime Unix timestamp that define the starting time of the vesting phase\n   */  \n  function startVesting(uint256 vestingStartTime) public onlyOwner {\n    _vestingStartTimestamp = vestingStartTime;      \n  }\n\n  /**\n   * @dev This function is necessary in order to allow investors to purchase tokens\n   * @param addresses All the addresses to be whitelisted\n   */  \n  // TODO : Need to optimize the for loop\n  function addToWL(address[] memory addresses) public onlyOwner{\n      for (uint8 i = 0; i<addresses.length; i++) {\n        _isWhitelisted[addresses[i]] = true;\n      }\n  }\n  \n  \n  /**\n   * @dev low level token purchase \n   * @param _beneficiary The address of the investor\n   */  \n  function buyTokens(address _beneficiary) public payable {\n\n    uint256 weiAmount = msg.value;\n\n    // Prevalidate the purchase before buying\n    _preValidatePurchase(_beneficiary, weiAmount);\n\n    // calculate token amount to be created\n    uint256 tokens = _getTokenAmount(weiAmount);\n    uint256 _50Percent = tokens/2;\n\n    // Half of the tokens is kept in the SC, mapped to the investor's address\n    tokenHolders[_beneficiary] = _50Percent;\n\n    // update state to track the total amount raised\n    weiRaised = weiRaised+weiAmount;\n    \n    // Send half of the tokens to the investor \n    _deliverTokens(_beneficiary, _50Percent);\n\n    // Emit an event to track all purchases\n    emit TokenPurchase(msg.sender, _beneficiary, weiAmount, _50Percent);\n\n  }\n\n   /**\n   * @dev With all the modifiers and requires, this function ensures buying tokens is allowed.\n   *      Namely : The presale should be ongoing, there are still tokens in the SC, the SC is not paused,\n   *.     The investor is whitelisted, and the amount is correct.\n   * @param _beneficiary The address of the investor\n   * @param _weiAmount The amount spent by the investor\n   */\n  function _preValidatePurchase(\n    address _beneficiary,\n    uint256 _weiAmount\n  )\n    view internal hasStarted hasNotEnded hasTokens isNotPaused\n  {\n    require(_beneficiary != address(0), \"Buyer addess cannot be 0\");\n    require(_isWhitelisted[_beneficiary], \"Buyer not whitelisted\");\n    require(_weiAmount==packagePrice, \"Price not correct\");\n  }\n\n\n  /**\n   * @dev Source of tokens. Override this method to modify the way in which the crowdsale ultimately gets and sends its tokens.\n   * @param _beneficiary Address performing the token purchase\n   * @param _tokenAmount Number of tokens to be emitted\n   */\n  function _deliverTokens(address _beneficiary, uint256 _tokenAmount) internal{\n    _transfer(address(this), _beneficiary, _tokenAmount);\n  }\n\n\n  /**\n   * @dev Override to extend the way in which ether is converted to tokens.\n   * @param _weiAmount Value in wei to be converted into tokens\n   * @return Number of tokens that can be purchased with the specified _weiAmount\n   */\n  function _getTokenAmount(uint256 _weiAmount) internal view returns (uint256){\n    return _weiAmount*rate;\n  }\n\n  /**\n   * @dev Once the vesting is finished, investors can withdraw the 50% left of their tokens\n   * @param withdrawer The address of the investor\n   */\n  function withdraw (address withdrawer) public isVestingFinished\n  {\n      require(withdrawer != address(0), \"BEP20: Transfer to zero address\");\n      uint256 withdrawnAmount = tokenHolders[withdrawer];\n      _deliverTokens(withdrawer, withdrawnAmount);\n  }\n\n  /**\n   * @dev All unsold tokens can be sent to the owner of the contract, if not sold out\n   */\n  function sendTokensBack() public onlyOwner hasNotEnded\n  {\n    transferFrom(address(this), msg.sender, balanceOf(address(this)));\n  }\n}",
  "sourcePath": "/Users/pilu/Desktop/Smart-Contract-Presale/contracts/MoutainPresale.sol",
  "compiler": {
    "name": "solc",
    "version": "0.8.13+commit.abaa5c0e.Emscripten.clang"
  },
  "schemaVersion": "3.4.6",
  "updatedAt": "2022-05-20T03:19:19.838Z",
  "networkType": "ethereum",
  "devdoc": {
    "events": {
      "TokenPurchase(address,address,uint256,uint256)": {
        "params": {
          "amount": "amount of tokens purchased",
          "beneficiary": "who got the tokens",
          "purchaser": "who paid for the tokens",
          "value": "weis paid for purchase"
        }
      }
    },
    "kind": "dev",
    "methods": {
      "addToWL(address[])": {
        "details": "This function is necessary in order to allow investors to purchase tokens",
        "params": {
          "addresses": "All the addresses to be whitelisted"
        }
      },
      "allowance(address,address)": {
        "details": "See {IARC20-allowance}."
      },
      "approve(address,uint256)": {
        "details": "See {IARC20-approve}. NOTE: If `amount` is the maximum `uint256`, the allowance is not updated on `transferFrom`. This is semantically equivalent to an infinite approval. Requirements: - `spender` cannot be the zero address."
      },
      "balanceOf(address)": {
        "details": "See {IARC20-balanceOf}."
      },
      "buyTokens(address)": {
        "details": "low level token purchase ",
        "params": {
          "_beneficiary": "The address of the investor"
        }
      },
      "decimals()": {
        "details": "Returns the number of decimals used to get its user representation. For example, if `decimals` equals `2`, a balance of `505` tokens should be displayed to a user as `5.05` (`505 / 10 ** 2`). Tokens usually opt for a value of 18, imitating the relationship between Ether and Wei. This is the value {ARC20} uses, unless this function is overridden; NOTE: This information is only used for _display_ purposes: it in no way affects any of the arithmetic of the contract, including {IARC20-balanceOf} and {IARC20-transfer}."
      },
      "decreaseAllowance(address,uint256)": {
        "details": "Atomically decreases the allowance granted to `spender` by the caller. This is an alternative to {approve} that can be used as a mitigation for problems described in {IARC20-approve}. Emits an {Approval} event indicating the updated allowance. Requirements: - `spender` cannot be the zero address. - `spender` must have allowance for the caller of at least `subtractedValue`."
      },
      "increaseAllowance(address,uint256)": {
        "details": "Atomically increases the allowance granted to `spender` by the caller. This is an alternative to {approve} that can be used as a mitigation for problems described in {IARC20-approve}. Emits an {Approval} event indicating the updated allowance. Requirements: - `spender` cannot be the zero address."
      },
      "name()": {
        "details": "Returns the name of the token."
      },
      "owner()": {
        "details": "Returns the address of the current owner."
      },
      "paused()": {
        "details": "Returns true if the contract is paused, and false otherwise."
      },
      "payee(uint256)": {
        "details": "Getter for the address of the payee number `index`."
      },
      "release(address)": {
        "details": "Triggers a transfer to `account` of the amount of Ether they are owed, according to their percentage of the total shares and their previous withdrawals."
      },
      "release(address,address)": {
        "details": "Triggers a transfer to `account` of the amount of `token` tokens they are owed, according to their percentage of the total shares and their previous withdrawals. `token` must be the address of an IARC20 contract."
      },
      "released(address)": {
        "details": "Getter for the amount of Ether already released to a payee."
      },
      "released(address,address)": {
        "details": "Getter for the amount of `token` tokens already released to a payee. `token` should be the address of an IARC20 contract."
      },
      "renounceOwnership()": {
        "details": "Leaves the contract without owner. It will not be possible to call `onlyOwner` functions anymore. Can only be called by the current owner. NOTE: Renouncing ownership will leave the contract without an owner, thereby removing any functionality that is only available to the owner."
      },
      "sendTokensBack()": {
        "details": "All unsold tokens can be sent to the owner of the contract, if not sold out"
      },
      "setStartTime(uint256)": {
        "params": {
          "startTime": "Unix timestamp that define the starting time of the presale"
        }
      },
      "shares(address)": {
        "details": "Getter for the amount of shares held by an account."
      },
      "startVesting(uint256)": {
        "params": {
          "vestingStartTime": "Unix timestamp that define the starting time of the vesting phase"
        }
      },
      "symbol()": {
        "details": "Returns the symbol of the token, usually a shorter version of the name."
      },
      "totalReleased()": {
        "details": "Getter for the total amount of Ether already released."
      },
      "totalReleased(address)": {
        "details": "Getter for the total amount of `token` already released. `token` should be the address of an IARC20 contract."
      },
      "totalShares()": {
        "details": "Getter for the total shares held by payees."
      },
      "totalSupply()": {
        "details": "See {IARC20-totalSupply}."
      },
      "transfer(address,uint256)": {
        "details": "See {IARC20-transfer}. Requirements: - `to` cannot be the zero address. - the caller must have a balance of at least `amount`."
      },
      "transferFrom(address,address,uint256)": {
        "details": "See {IARC20-transferFrom}. Emits an {Approval} event indicating the updated allowance. This is not required by the EIP. See the note at the beginning of {ARC20}. NOTE: Does not update the allowance if the current allowance is the maximum `uint256`. Requirements: - `from` and `to` cannot be the zero address. - `from` must have a balance of at least `amount`. - the caller must have allowance for ``from``'s tokens of at least `amount`."
      },
      "transferOwnership(address)": {
        "details": "Transfers ownership of the contract to a new account (`newOwner`). Can only be called by the current owner."
      },
      "withdraw(address)": {
        "details": "Once the vesting is finished, investors can withdraw the 50% left of their tokens",
        "params": {
          "withdrawer": "The address of the investor"
        }
      }
    },
    "version": 1
  },
  "userdoc": {
    "events": {
      "TokenPurchase(address,address,uint256,uint256)": {
        "notice": "Event for token purchase logging"
      }
    },
    "kind": "user",
    "methods": {},
    "version": 1
  }
}